:020000040800F2
:1000000000800120ED110008610D0008650D000859
:10001000690D00086D0D0008710D0008000000005A
:100020000000000000000000000000003D12000879
:10003000750D000800000000AD0200084302000832
:100040003D1200083D1200083D1200083D12000854
:100050003D1200083D1200083D1200083D12000844
:100060003D1200083D1200083D120008790D0008FD
:100070003D1200083D1200083D1200083D12000824
:10008000850D0008990D00083D12000800000000D1
:100090000000000000000000000000003D12000809
:1000A0003D120008AD0D00083D1200083D12000889
:1000B0003D1200083D1200083D120008B90D00086D
:1000C000C50D00083D1200083D120008D10D0008C2
:1000D0003D120008DD0D0008E90D000800000000D9
:1000E0003D1200083D1200083D120008000000000B
:1000F000000000000000000000000000F90D0008F2
:10010000000000003D1200083D1200083D120008EA
:1001100000000000000000000000000000000000DF
:10012000050E0008110E00081D0E0008290E00081B
:100130003D12000800000000000000000000000068
:100140000000000000000000000000003D12000858
:100150003D120008350E0008410E00084D0E000843
:100160003D1200083D1200080000000000000000E1
:10017000000000000000000000000000000000007F
:10018000000000003D120008000000000000000018
:040190003D12000814
:1001A00010B5054C237833B9044B13B10448AFF3B1
:1001B00000800123237010BD2805002000000000EE
:1001C000647E000808B5034B1BB103490348AFF335
:1001D000008008BD000000002C050020647E00089F
:1001E00072B61D481D4901F1040101604FF0E02085
:1001F0001B49C0F8081D1B481949096801601A48C5
:10020000016841F0010101604FF0E02017494161B0
:100210004FF0070101614FF00001C0F8181D4FF0C9
:100220007F41C0F81C1D1249C0F8201D7047FFF720
:10023000FEBFFFF7FEBFFFF7FEBF01B5BDE80140FF
:10024000704701B500F09CF8BDE801407047FFF72A
:10025000FEBFFFF7FEBF0000C45A002080AD0020A3
:1002600000000008A05B0020001000E03FD10C005F
:100270000000FF400000000000000000000000003F
:100280004FF000002A4A1060EFF3148020F00400C1
:1002900080F3148862B64FF080504FF0E021C1F82F
:1002A000040DBFF34F8FBFF36F8FFEE72148224A43
:1002B0004FF00003016891B10360EFF3098C2CE962
:1002C000F00F1EF0100F01D12CED108A1B4C4CF8D2
:1002D00004ED2568C1F808C00DB18D61236072B6C8
:1002E0001168B1B1016062B64F68144C8D6907F1B5
:1002F00001074F602560D1F808C05CF804EB1EF0E0
:10030000100F01D1BCEC108ABCE8F00F8CF3098807
:10031000704772B61168016009B962B6F9E74FF02B
:1003200000674FF0E028C8F8047D62B6DCE770474C
:10033000045B00209C5B0020985B0020A45B0020F5
:10034000026922F00702A2F144026FF00203136077
:100350004FF0000353609360D36013615361936166
:10036000D361136253629362D362136353634FF09A
:10037000FF339363D1634FF08073136482607047DF
:100380002249086800F101000860214B1A683AB15F
:10039000A2F101021A601AB91E4B4FF00100186059
:1003A0001D490868026822B11C4B4FF001021A6017
:1003B00008E000F104001A4B1A68904201D1194B71
:1003C00018680860134B1A6812B914490868C8B154
:1003D00001B51249086808B104F04EFE0D4B1A68C9
:1003E00072B104F075FD1048016849B90F48016801
:1003F0000F4A13680F484FF08052994200D00260B4
:10040000BDE80140BFF34F8F70470000046100203A
:10041000A45B002000610020746000207060002058
:10042000786000207C600020045B00209C5B002042
:10043000985B002004ED00E00000000000000000D8
:1004400001F0FF01102A2BDB10F0070F08D010F885
:10045000013B013A8B422DD010F0070F42B3F6D189
:10046000F0B441EA012141EA014122F007047FF0A2
:1004700000070023F0E80256083C85EA010586EAF9
:10048000010685FA47F5A3FA87F586FA47F6A5FA35
:1004900087F68EB9EED1F0BC01F0FF0102F0070241
:1004A00032B110F8013B013A83EA010313B1F8D1EC
:1004B0000020704701387047002D06BF35460338CD
:1004C000073815F0010F07D1013015F4807F02BF06
:1004D000013015F4C03F0130F0BC0138704700BF57
:1004E000034613F8012B002AFBD1181A0138704774
:1004F00053B94AB9002908BF00281CBF4FF0FF318B
:100500004FF0FF3000F088B9ADF1080C6DE904CE72
:1005100000F006F8DDF804E0DDE9022304B07047DE
:100520002DE9F047089D0F4604468C46002B48D124
:100530008A42164661D9B2FA82F34BB1C3F1200266
:1005400001FA03FC20FA02F29E4042EA0C0C9C40A5
:100550004FEA164EB7B2BCFBFEF1220C0EFB11CCDB
:1005600042EA0C4201FB07F0904209D9B21801F1AE
:10057000FF3C80F0EE80904240F2EB800239324442
:10058000121AA4B2B2FBFEF00EFB102244EA02449F
:1005900000FB07F7A74209D9341900F1FF3280F0B8
:1005A000DA80A74240F2D7803444023840EA014062
:1005B000E41B00211DB1DC400023C5E90043BDE878
:1005C000F0878B4206D90DB1C5E90001002108462C
:1005D000BDE8F087B3FA83F1002948D1BB4202D3CA
:1005E000824200F20781841A67EB030201209446DD
:1005F000002DE4D0C5E9004CE1E7002A00F092802C
:10060000B2FA82F3002B40F0A8808A1A4FEA164E05
:100610001FFA86FC0121200CB2FBFEF70EFB17220D
:1006200040EA02420CFB07F0904207D9B21807F1EA
:10063000FF3802D2904200F2E2804746121AA4B27A
:10064000B2FBFEF00EFB102244EA02440CFB00FC5D
:10065000A44507D9341900F1FF3202D2A44500F2B3
:10066000CB801046A4EB0C0440EA0740A2E7C1F19E
:1006700020068B4022FA06FC4CEA030C07FA01F430
:1006800020FA06F3F7404FEA1C49234300FA01F829
:100690001FFA8CFEB7FBF9F01C0C09FB107744EA3B
:1006A000074400FB0EF7A74202FA01F20AD91CEB3D
:1006B000040400F1FF3A80F09B80A74240F298804A
:1006C00002386444E41B9FB2B4FBF9F309FB134402
:1006D00047EA044403FB0EFEA64509D91CEB0404BB
:1006E00003F1FF3780F08280A6457FD9023B644446
:1006F00043EA0040A4EB0E04A0FB02E7BC427346B1
:10070000B94663D360D05DB1B8EB030264EB090472
:1007100004FA06F622FA01F31E43CC40C5E9006450
:1007200000214CE76208480842EAC1710B0C43EA19
:1007300000438AB242EA0342B3FBF6F1E407B4464F
:100740003746B6461F23B0FBF6F0D21B41EA004104
:1007500061E7614614E7104628E7C3F1200120FA5B
:1007600001F29E4027FA01F19F403A434FEA164EAC
:100770001FFA86FCB1FBFEF70EFB1710110C41EAC5
:10078000004107FB0CF8884504FA03F43AD97118C4
:1007900007F1FF3001D288451FD8A1EB0801B1FB5A
:1007A000FEF808FB0CF70EFB181192B242EA014268
:1007B000BA422FD2B21808F1FF31C6D2BA42C4D21F
:1007C000A8F102013244C0E7F0459CD2BEEB02031F
:1007D00067EB0C070138B94695E7A6EB08084144DA
:1007E000B81EB1FBFEF808FB0CF7DCE73B467FE7E1
:1007F000504667E70846FBE63444023832E7023FDA
:1008000032441BE7A1EB08013846B1FBFEF808FBB8
:100810000CF7C8E7414698E7704700BF00B583B0C2
:1008200034230093054A064906484FF4A04304F0D8
:10083000ABFD03B05DF804EB06F010B944050020F1
:100840007C7E00084455002003F0A0BB60B1642307
:1008500003FB00F000F2E730B0F57A7F23BF034BD3
:10086000A3FB00308009012004F056B8D34D62107C
:1008700008B504F0F7FB044B4FF47A7202FB00F06A
:10088000A3FB0030400908BD1F85EB5110B582B0B5
:100890000024344B0094196B41F400111963186B58
:1008A00000F40010009000980194186B40F4800050
:1008B00018631B6B03F480032246214601930B202F
:1008C000019B00F0FBFC0B2000F032FD224621468C
:1008D000102000F0F3FC102000F02AFD22462146F3
:1008E000112000F0EBFC112000F022FD22462146F1
:1008F0002F2000F0E3FC2F2000F01AFD22462146B5
:10090000382000F0DBFC382000F012FD22462146A2
:10091000392000F0D3FC392000F00AFD22462146A0
:100920003A2000F0CBFC3A2000F002FD224621469E
:100930003B2000F0C3FC3B2000F0FAFC224621469D
:10094000452000F0BBFC452000F0F2FC2246214689
:10095000462000F0B3FC462002B0BDE8104000F095
:10096000E7BC00BF0038024010B500248CB0CDE9D0
:100970000644CDE908443B4B01940A941A6B3A486B
:1009800042F004021A631A6B02F004020192019A07
:1009900002941A6B42F080021A631A6B02F0800212
:1009A0000292029A03941A6B42F001021A631A6BC4
:1009B00002F001020392039A04941A6B42F00202BD
:1009C0001A631A6B02F002020492049A05941A6BDD
:1009D00042F008021A631B6B03F0080305932246DA
:1009E0001021059B00F0A8FF4FF400524FF40413B0
:1009F00006A91D480894CDE9062300F0ADFE41F696
:100A00002F72032306A918480894CDE9062300F0A5
:100A1000A3FE49F61312032306A914480894CDE94E
:100A2000062300F099FE1022012306A90E48CDE905
:100A30000623CDE9084400F08FFE4FF237720323FE
:100A400006A90B480894CDE9062300F085FE042290
:100A500003230848089406A9CDE9062300F07CFE8C
:100A60000CB010BD003802400008024000000240F7
:100A700000040240000C024010B5002394B0CDE900
:100A80000A33CDE90C33CDE90333CDE905332149F0
:100A900001930793086C204A40F080500864096C69
:100AA00001F08051019101990293136823F44043AE
:100AB00043F400431360136801204FF4A02103F4B2
:100AC0004043CDE9080102934FF480010224CDE9AF
:100AD0000E41029807210220CDE91201042254237D
:100AE00008A81092119301F085FE08B172B6FEE7D6
:100AF0000F210346CDE903144FF4805203A8214689
:100B0000CDE90532079302F08FF808B172B6FEE71F
:100B100014B010BD003802400070004008B500F06D
:100B20008FFBFFF7A9FFFFF71FFFFFF7AFFE00F0F6
:100B300011F805F069FFFFF787FEFEE7034B026837
:100B40009A4200D0704700F095BB00BF0000014002
:100B500072B6FEE710B50E480E4C4FF482720023B9
:100B6000C4E900024FF400710A222046C4E90233AE
:100B7000C4E90433C4E90613C4E90833C4E90A32FA
:100B800002F032F900B910BDBDE81040FFF7E0BF38
:100B9000003001403856002070B5374B026888B0ED
:100BA00000249A42CDE90244CDE90444069401D0E0
:100BB00008B070BD03F5843300945A6C2F4E42F494
:100BC00080525A645A6C02F480520092009A019446
:100BD0001A6B42F001021A631B6B03F001030193CD
:100BE000E0220223CDE902230546032205230198D2
:100BF000234802A9CDE9052300F0AEFD214A4FF0BC
:100C0000C063C6E9002330464FF48063C6E902445E
:100C1000C6E90434C6E90644C6E9084400F096FB78
:100C200018BB194C1949EE644FF0C0620023C4E9A7
:100C30000012204640214FF48062C4E90213C4E947
:100C40000533C4E90733B5632261636200F07EFBBC
:100C500070B900220321AC642320A56300F02EFBB1
:100C6000232000F065FB08B070BDFFF771FFD8E7E7
:100C7000FFF76EFFEDE700BF00300140D8550020C0
:100C80000000024010640240785500205864024081
:100C900082B00C4B002100915A6C42F480425A649D
:100CA0005A6C02F480420092009A01911A6C42F050
:100CB00080521A641B6C03F080530193019B02B0B5
:100CC000704700BF0038024030B589B000241F4B88
:100CD00002945A6C42F001025A645B6C03F0010307
:100CE00001A90293054603A8029B02F05BF802F0FB
:100CF00049F81749174A0A6040F2E732CA60164AB3
:100D00000C61A2FB00239B0C013B0846C1E90134A6
:100D10008C6102F0BBFA044610B1204609B030BD28
:100D20000B4802F08BF904460028F6D1192000F098
:100D3000FFFA0F2D01D90124EFE722462946192099
:100D400000F0BCFA054B1D60E7E700BF0038024029
:100D5000905600200000014083DE1B430800002065
:100D6000FEE700BFFEE700BFFEE700BFFEE700BFF3
:100D7000FEE700BF704700BF014800F013BC00BF92
:100D80003857002008B5012005F0BCF8BDE8084040
:100D9000C06B00F007BC00BF08B5012005F0B2F839
:100DA000BDE80840806B00F0FDBB00BF014802F0C9
:100DB0007FB900BF90560020014800F06DBF00BF12
:100DC00098570020014801F045BC00BF985700200B
:100DD000014802F06DB800BF38560020014802F00B
:100DE00037BD00BF785A002008B5012005F08AF809
:100DF000BDE8084005F0E0B8014800F0D3BB00BFF3
:100E0000D8560020014800F0CDBB00BFD8550020C7
:100E1000014800F0C7BB00BF50580020014800F057
:100E2000C1BB00BFD0590020014800F0BBBB00BFD0
:100E300078550020014800F0B5BB00BFF0570020F6
:100E4000014800F0AFBB00BF70590020014802F01C
:100E5000FFBC00BF305A00200120704708B506F0E3
:100E60003DF8162303604FF0FF3008BD08B506F0CB
:100E700035F816230360FEE770B5161E07DD0C4635
:100E80008D19AFF3008004F8010BA542F9D130466B
:100E900070BD00BF70B5161E07DD0C468D1914F825
:100EA000010BAFF30080A542F9D1304670BD00BF01
:100EB0004FF0FF30704700BF4FF400534B600020ED
:100EC000704700BF01207047002070470C490D4A51
:100ED0000B6810B50C4C121B2BB11844904207D86C
:100EE0000860184610BD094B0B6018449042F7D9B2
:100EF00005F0F4FF0C2303604FF0FF33184610BDDC
:100F0000EC5700200080012000040000802D01200B
:100F1000034AD2F8883043F47003C2F8883070472F
:100F200000ED00E070B503689E4A8CB00024934247
:100F3000CDE90644CDE9084405460A9408D09A4A0A
:100F4000934265D0994A934200F0BE800CB070BDC8
:100F5000974B00945A6C974E42F010025A645A6CA8
:100F600002F010020092009A01941A6B42F0010202
:100F70001A631B6B03F0010301934FF4C062022359
:100F8000CDE9062301988C480322072306A9CDE961
:100F9000092300F0E1FB894A4FF00063C6E9002312
:100FA00030464FF480624FF48073C6E90244C6E9CC
:100FB0000424C6E90643C6E9084400F0C7F900283E
:100FC00040F0E0807E4C7F49EE634FF000620023EA
:100FD000C4E90012204640214FF48062C4E90213A4
:100FE000C4E90533C4E90733B5632261636200F0E5
:100FF000ADF9002840F0C380AC6300220121252018
:10100000A56300F05BF9252000F092F90CB070BDEB
:10101000674B02941A6C68486B4E42F400321A64B3
:101020001A6C02F400320292029A03941A6B42F094
:1010300001021A631B6B03F0010303930C220223CA
:10104000CDE9062306A90723039A0A9300F084FB3F
:101050005E4A4FF00063C6E9002330464FF48062D9
:101060004FF48073C6E90244C6E90424C6E9064386
:10107000C6E9084400F06AF9002840F08680544C24
:101080005449EE634FF000620023C4E90012204689
:1010900040214FF48062C4E90213C4E90533C4E976
:1010A0000733B5632261636200F050F900286FD105
:1010B000AC63002201212620A56300F0FFF8262062
:1010C00000F036F90CB070BD394B04945A6C424EA6
:1010D00042F020025A645A6C02F020020492049AF0
:1010E00005941A6B42F004021A631B6B03F00403AD
:1010F0000593C0220223CDE9062305983748032231
:10110000082306A9CDE9092300F026FB344A4FF055
:101110002063C6E9002330464FF480624FF48073A9
:10112000C6E90244C6E90424C6E90643C6E9084400
:1011300000F00CF990BB2B4C2B49EE634FF0206272
:101140000023C4E90012204640214FF48062C4E924
:101150000213C4E90533C4E90733B563226163624E
:1011600000F0F4F8B8B9AC63002201214720A56370
:1011700000F0A4F8472000F0DBF80CB070BDFFF7DA
:10118000E7FC39E7FFF7E4FC1CE7FFF7E1FC76E753
:10119000FFF7DEFC8CE7FFF7DBFCE4E7FFF7D8FCAA
:1011A000C9E700BF001001400044004000140140A6
:1011B00000380240D0590020000002404064024044
:1011C00070590020B8640240105900208860024025
:1011D000B0580020A0600240505800200008024093
:1011E00028640240F0570020A0640240DFF834D0A9
:1011F000FFF78EFE0C480D490D4A002302E0D4583B
:10120000C4500433C4188C42F9D30A4A0A4C002350
:1012100001E013600432A242FBD305F065FEFFF744
:101220007DFC704700800120000000202805002080
:10123000FC800008280500207CAD0020FEE70000AF
:1012400008B50B4B1A6842F400721A601A6842F42F
:1012500080621A601A6842F480721A60032000F0FB
:101260001BF80F20FFF730FDFFF712FD002008BD2F
:10127000003C0240034A044B11681B780B44136086
:10128000704700BFC05A002004000020014B1868BE
:10129000704700BFC05A00200749CA6803024FF6D2
:1012A000FF0003F4E0630240134343F0BF6343F4E1
:1012B0000033CB60704700BF00ED00E01A4BDB68E5
:1012C000C3F3022300B5C3F1070EBEF1040F03F10F
:1012D000040C28BF4FF0040EBCF1060F1BD9A3F17C
:1012E000030C4FF0FF3303FA0CF322EA03024FF032
:1012F000FF3303FA0EF321EA030303FA0CF313435B
:101300001B010028DBB209DB00F1604000F5614001
:1013100080F8003300BD00229446E8E7034A00F05D
:101320000F000244137600BD00ED00E0FCEC00E08D
:10133000002807DB044A4109012300F01F00834015
:1013400042F82130704700BF00E100E038B50446A4
:10135000FFF79CFF002C6BD023680022022184F849
:10136000351084F834201A6822F0010205461A600C
:1013700005E0FFF78BFF431B052B37D823681A685E
:10138000D107F6D4D4E90120E16802430A43D4E945
:101390000451A0692A430A43E1691D6802430A43D4
:1013A00031492940256A2A430A43616A042924D025
:1013B0001A605A6922F007021143D8B22B4A5961C8
:1013C0001038A2FB0052120929496FF30903895C06
:1013D000E1655F2888BF04333F228A40A36500206F
:1013E0009A600123606584F8353038BD03232022DC
:1013F000626584F83530184638BDD4E90B5129436D
:10140000114319605969A26A21F00701114341F0A3
:101410000401002DD1D068B9012A21D032F0020296
:10142000CBD1EA01C9D540220123626584F8353069
:10143000012038BDB0F5005F04D0022AF3D9032A99
:10144000EFD0BAE7032AB8D801A050F822F000BFC5
:10145000271400082314000827140008611400084A
:10146000B5F1C07FA9D1DEE73F8010F0ABAAAAAAF0
:10147000F07F000870B490F83440856D012C0AD0DC
:1014800090F835404FF0010C644580F834C005D029
:10149000002380F83430022070BC7047022680F8A8
:1014A0003560046800264665266826F48026266096
:1014B00063608368402B0EBFA260A160E260C26DD2
:1014C00008BFE1603F239340AB602368026C43F0A8
:1014D000160323601AB1236843F0080323602368CE
:1014E00043F001030020236070BC704770B50446D0
:1014F000866DFFF7CBFE94F83530022B06D08023A3
:101500006365002384F83430012070BD23681A68B5
:1015100022F016021A605A6922F080025A61226C87
:10152000054642B31A6822F008021A601A6822F0CF
:1015300001021A6005E0FFF7A9FE431B052B10D836
:1015400023681B6813F00103F5D1E16D3F228A4047
:10155000184601210023B26084F8351084F8343035
:1015600070BD032320226265184684F835300023BD
:1015700084F8343070BDA26C002AD3D1D6E700BF06
:1015800090F83530022B03D080234365012070474B
:101590000268052380F83530136823F0010300202A
:1015A00013607047F0B583B0674A876D16680023F3
:1015B0000193C36D3D6808229A402A42044603D035
:1015C00001680868400778D401229A402A4203D073
:1015D0002168496908066AD404229A402A4203D045
:1015E0002168096889075CD410229A402A4203D0F6
:1015F00021680868000741D420229A402A4214D06A
:1016000021680868C00610D5BA6094F83520052A0C
:1016100063D00B6813F4802F0B687ED0190340F160
:101620008980E36B0BB120469847636D23B3636DEC
:10163000DA071AD522684549052384F8353013683E
:10164000A1FB061623F00103B60A136002E013683B
:10165000DB0704D5019B0133B3420193F7D9012283
:10166000002384F8352084F83430E36C23B120461D
:1016700003B0BDE8F040184703B0F0BDBA600A6897
:1016800012F4802F0A6822D1D20503D40A6822F00E
:1016900008020A60226C002AAED020469047E36D13
:1016A000AAE7BA60626D42F0040262659CE7BA6024
:1016B000626D42F0020262658EE7086820F0040065
:1016C0000860BA60626D42F0010262657CE7110356
:1016D000E0D5A26C002AE0D18EE70A6822F016025B
:1016E0000A604A6922F080024A61226C3AB30A68B1
:1016F00022F008020A603F2202FA03F3216DBB6068
:101700000122002384F8352084F834300029B3D036
:10171000204603B0BDE8F040084713F4807380D141
:101720000A6822F010020A60012284F8352084F849
:10173000343076E7636C002B7FF475AF75E7A26CED
:10174000002AD4D1D7E700BF00000020B5814E1B8E
:1017500090F83500704700BF2DE9F04F00230C686A
:10176000DFF8C8A185B04FF0010B894603E00133D3
:10177000102B00F087800BFA03F202EA0408A24360
:10178000F5D1D9F8041001F0030C5A0003250CF12F
:10179000FF379540012F6FEA050576D9BCF1030F9D
:1017A00008D0C76807EA050ED9F80870974047EADD
:1017B0000E07C76007680CFA02F23D402A4311F495
:1017C000403F0260D3D000220392DAF8442042F472
:1017D0008042CAF84420DAF8442002F4804203929E
:1017E000039A23F0030202F1804203F003070F265D
:1017F00002F59C32BF0006FA07FC494E9568B042DC
:1018000025EA0C0515D006F58066B04275D0454E28
:10181000B04278D0DFF818C160457AD0DFF814C143
:1018200060450CBF4FF0040C4FF0070C0CFA07F7A3
:101830003D4395603C4A9268CE026FEA08053A4EF5
:1018400054BF2A4048EA0202B260F268364E8F0264
:1018500054BF2A4048EA0202F26072688E03324E98
:1018600054BF2A4048EA020272603268C90303F199
:1018700001032D4954BF2A4048EA0202102B0A6096
:101880007FF479AF05B0BDE8F08F876807EA050EF1
:10189000D9F80C70974047EA0E078760476827EA37
:1018A000080EC1F300179F4047EA0E074760C7685C
:1018B00007EA050ED9F80870974047EA0E07BCF111
:1018C000020FC7607FF476AFDF0800EB8707009751
:1018D0003E6AD9F81070019603F0070E4FEA8E0E9B
:1018E0000F2607FA0EF706FA0EFE019E26EA0E0EE6
:1018F000009E47EA0E0737625CE74FF0010C0CFAD6
:1019000007F73D4395E74FF0020C0CFA07F73D430C
:101910008FE74FF0030C0CFA07F73D4389E700BF50
:101920000000024000080240003C01400038024034
:10193000000C02400010024002B9090481617047A6
:10194000704700BF704700BF704700BF704700BFBF
:10195000704700BF704700BF704700BF08B590F8E0
:101960003D20016D034659B9C26C0168012A826CA1
:101970001BD0C2F307220A61026D0132026508BD65
:10198000016D012909D0016D022914D003685A693B
:10199000120644BF00221A6108BD826C0168D2B2EF
:1019A0000A61026D0132026508BDD2B20A61026DA0
:1019B0000232026508BDD2B2222A22D0418D89B2FC
:1019C000D9B9418D89B20029D9D1212AD7D102684C
:1019D000D2F804C02CF4E06CC2F804C0D2F800C005
:1019E0004CF4007CC2F800C02022016380F83D2046
:1019F00080F83E10FFF7B0FF08BD212A0AD05B8DAA
:101A000008BD01680A6842F480720A60026D013202
:101A1000026508BD416A026811F8010B10615A8D18
:101A20005962013A92B25A8508BD00BF704700BFA3
:101A3000704700BF704700BF70B53A4B3A4A1B6809
:101A4000806B82B0DB080021A2FB032301911B0AFB
:101A500090F83D10026803EB8303C3EBC303C9B2E4
:101A6000019305E0019B013B019313689B0506D59B
:101A7000019B002BF6D1036C43F020030364D0E9F3
:101A80000D4344B30025E563F3B11668DD6326F426
:101A9000806616604585256500241C65136823F063
:101AA0000103136090F83D30602B29D001F028012C
:101AB000282918D02022002380F83D2080F83E30CD
:101AC000FFF7B6FF02B070BD156825F4806515609C
:101AD00043852365E2E7F3B11568DC6325F480658F
:101AE00015604485D8E7136843F001031360136859
:101AF000002443F480631360046380F83D10DFE743
:101B00000023202280F83D2080F83E300364FFF758
:101B100091FF02B070BD146824F4806414604385A2
:101B2000BCE700BF0000002089B5F81410B590F89C
:101B30003D2090F83E30102B0446D2B239D0D9B2B5
:101B4000402936D002F02801282923683CD0596862
:101B5000080507D4602A05D02021002284F83D1012
:101B600084F83E20002222635A6812F4006233D1C6
:101B700094F83D10602974D05A69500605D5626A00
:101B80001B691370636A013363622046FFF750FFDD
:101B9000236C190704D02268536823F4E063536070
:101BA00094F83D30226C5207DBB201D5282B2ED0A1
:101BB00010BD222AC6D123681A6822F400621A6076
:101BC0005A681205C8D5CDE70022226384F83D107B
:101BD0005A6812F40062CBD05A68606B22F400623B
:101BE0005A6090F83530012B1ED0294B0365FFF762
:101BF000C7FC0028CCD02268606B1368202123F03A
:101C00000103136084F83D10036D9847C0E700237B
:101C10002049E16220222363204684F83D2084F895
:101C20003E30FFF797FE10BDA06B194B0365FFF721
:101C3000A7FC0028ACD023685A69510606D5626A11
:101C40001B691370626A2368013262621A68A06BB2
:101C500022F0010220211A6084F83D10036D98479C
:101C600096E7202184F83D1022645A69520606D571
:101C7000626A1B691370626A2368013262621A68C1
:101C800022F0010220461A60FFF7D4FE80E700BF71
:101C9000391A00080000FFFFF0B503685F68C56AE5
:101CA00090F83E2090F83D10102A04468FB0C9B23B
:101CB000D0B223D0402821D0226C002A00F0D88056
:101CC0005A69002012F0020500F09880BD0540F12D
:101CD0009780226C02B1986994F83D2002F02802A6
:101CE000282A00F03C8200220C9259690C919B69D1
:101CF0000C930C9B84F83C200FB0F0BD9E695A6990
:101D000012F0010F1AD1B5F52A0FF5D0B5F12A4F0F
:101D1000F2D012F0080537D0BD0539D5626C616B81
:101D2000D2B21A61002900F00782CA6B002A00F0C3
:101D300003825A6842F400625A60DDE7BD0527D588
:101D4000E26AB2F52A0F00F00082E26AB2F12A4F8D
:101D500004BF0822E26294F83E20402A00F0F88195
:101D60002269B2F5804F00F0D681226D002A00F082
:101D70006281226D012ABFD1626CD21102F006028B
:101D800042F0F1021A61B7E712F0020F40F03E8113
:101D9000760770D55D682D05AED4160602F00405F1
:101DA00040F151817A0540F14E81002D40F04E8185
:101DB00094F83D20208D94F83E10E56AD2B2C9B265
:101DC000002840F09A82212A00F06A83402993D1AA
:101DD000222A91D1628D92B2002A00F0D68294F824
:101DE0003E20402A00F03B81626A12F8011B196113
:101DF000638D6262013B9BB263857DE7D60664D446
:101E000001F0F701212902F0040000F0BA80550624
:101E100040F1ED80790540F1EA80002840F0EA8049
:101E200094F83D10628D92B2C9B2002A3FF464AFBB
:101E3000626A1B691370638D626A013B9BB26385A2
:101E4000638D01329BB26262002B7FF455AF2A2969
:101E50007FF452AF226853682225282123F480633F
:101E600053602046256384F83D10FFF76FFD43E77C
:101E700098695A6926E759680D053FF53DAF500648
:101E800002F0040100F1F18000293FF435AFBE05F6
:101E90007FF532AFE06A628D616A92B2042A00F087
:101EA000FA81628D92B2032A00F03982628D92B279
:101EB000022A00F06F821B690B70638D626A013B1E
:101EC00001329BB26262638516E7B80598D594F833
:101ED0003D605A6822F4E0625A600D955A690D928D
:101EE0001A6842F001021A600D9A1A6822F48062A0
:101EF0001A605A681105F6B200F1DD80638D9BB25D
:101F000013B323685A6952070AD5626A1B691370B2
:101F1000628D636A013A591C92B2236861626285DC
:101F20005A69570609D5626A1B691370638D626A24
:101F3000013B01329BB262626385638D9BB21BB130
:101F4000236C43F004032364236C002B40F0DD80FA
:101F50002A2E00F0698194F83D30282B00F057813B
:101F6000236B222B02D0222E7FF4C6AE0023202228
:101F70002363204684F83D2084F83E30FFF7E6FCDA
:101F8000BAE6150627D57A0525D538BB94F83D0065
:101F9000628D92B2C0B2002A3FF4AEAE626A12F80D
:101FA000015B1D616262628D013A92B26285628D4F
:101FB00092B2002A7FF4A0AE29287FF49DAE5A6821
:101FC000282522F480625A602046216384F83D501F
:101FD000FFF7BAFC90E600283FF48EAEBE057FF511
:101FE0008BAE628D92B2002A3FF486AEFCE60028EA
:101FF0003FF482AEBA057FF57FAE628D92B2002AC1
:102000003FF47AAE626A1B69137056E717F4007FDB
:102010003FF4BEAE94F83E20E06A266B94F83D1083
:102020002229D2B200F0D7800A955A690A929B6998
:102030000A930A9B60E6626CD21102F0060242F03B
:10204000F0021A6158E6002D3FF456AEBE057FF54A
:1020500053AE212900F0268140287FF44DAE204662
:102060000FB0BDE8F040FFF779BC7A057FF50CAF03
:1020700000297FF40CAF94F83D20222A7FF43CAE77
:10208000E06A628D92B2032A40F22182626A1B6981
:102090001370638D626A013B9BB26385638D9BB253
:1020A0000132032B62627FF427AE2268536823F467
:1020B0008063536020E606F0F702222A6AD0606B44
:1020C0000268526892B26285628D92B21AB1226C35
:1020D00042F0040222645A6822F400625A60FFF758
:1020E00037FB012808D0606B944B0365FFF748FA73
:1020F00010B1606B036D9847638D9BB2002B7FF42A
:1021000000AF236C002B3FF426AF20460FB0BDE894
:10211000F040FFF70BBD94F83D20212A626C16BFFA
:1021200042F0010202F0FE02D2B21A61626B1AB1F1
:10213000D26B002A7FF4FDADA26B002A3FF4DCAD28
:10214000D26B002A7FF4F5ADD6E50122E26202E609
:10215000226DCAB9626C02F0FE021A61CCE55A68BF
:10216000070622F480625A60C0F3800154BFE2681F
:10217000A269002381F00101C9B284F83C3092B217
:102180002046FFF7E5FBB7E5626C42F00102D2B2F0
:102190001A61B1E5A06B0268526892B26285628DE5
:1021A00092B21AB1226C42F0040222645A6822F4FC
:1021B00000625A60FFF7CCFA01283FF49FAEA06B93
:1021C0005E4B0365FFF7DCF900283FF497AEA06B88
:1021D000036D984792E6216D11B9402A00F0868080
:1021E000226D22B92169B1F5404F00F08A80628DDD
:1021F00092B24ABB03925A6903929A690392039A74
:102200001A6842F400721A600023236574E5002303
:102210004B49E16220222363204684F83D2084F864
:102220003E30FFF797FB67E528222363204684F8BA
:102230003D20FFF78BFB94F83D30282BE7D0236B34
:10224000222B7FF459AD91E6628D92B2012A7BD0A8
:10225000628D92B2022A00F0E8801A6842F480622D
:102260001A605A6812050ED5202800F2A8810728A6
:1022700040F2A181334A0838C240D70703D55A68D3
:1022800042F480525A60002209925A6909929B696D
:102290000993099BB8E75A6822F480625A601B6967
:1022A0000B700AE6E16A94F83D20212A7FF424AD00
:1022B000628D92B2002A7FF497AD082900F0D88091
:1022C000202900F0D58011F5803F00F0D1805968B9
:1022D00021F4E061596011202023206384F83E201E
:1022E000204684F83D30FFF72BFB05E501915A6944
:1022F00001929B690193019BFEE4212A7FF466AD64
:1023000068E502925A6902929A690292029A1A68E0
:1023100042F480721A60236D01332365ECE45A683D
:10232000042822F480625A603FF4C5AD02283FF4CD
:10233000C2AD1A6822F480621A60BCE5391A00083E
:102340000000FFFF0101000110F5803F00F01C813B
:10235000082800F0F580202800F0F280122E00F00E
:102360005081102800F24F819A4A0241D20700F1B1
:102370004A811A6842F480621A60002206925A6901
:1023800006929B690693069B3EE75A6822F4806298
:102390005A60B1E4421E0F2A09D8DFE802F0413C3E
:1023A000083C0808080808080808080808411A68CE
:1023B00042F400721A601B690B70638D626A013B04
:1023C0009BB263852368511C1B6961625370638DE6
:1023D0002168626A013B9BB263854B68013223F43A
:1023E000407362624B60202384F83D3094F83E30A5
:1023F000402B4FF0000384F83E3000F0E5800828C1
:1024000000F0D680202800F0D380122323632046DA
:10241000FFF798FA70E41A6842F480621A60CAE71B
:102420001A6822F480621A60C5E7102800F29880CA
:10243000694AC240D70740F193801A6842F480622B
:102440001A605A6815050BD5072840F2D680634AF2
:102450000838C240D10703D55A6842F480525A6006
:10246000002208925A6908929B690893089BCBE660
:10247000596821F4E061596019680022202041F474
:1024800000711960226384F83D0094F83E3084F8AE
:102490003E20402B20467FF426AFFFF75DFA2BE469
:1024A000082DE5D0202DE3D015F5803FE0D05A6807
:1024B00022F4E0625A60112000212023206384F876
:1024C0003E10204684F83D30FFF73AFA14E4E56AFE
:1024D000022D3FF45AAF012A3FF657AF404A0B9105
:1024E000126846F2A811B2FBF1F202EB82020B92E3
:1024F00004E01A6812F4007200F08A800B9A013A24
:102500000B920B990029F4D1226C606A42F02002F0
:1025100022645A6822F4E0625A601B690370638D7A
:10252000626A013B01329BB220206385626284F8BB
:102530003D00204684F83E10FFF77AFAFFF7DCBB37
:102540001A68002122F480621A6007915A69079282
:102550009A690792079A1A6842F400721A6053E661
:102560001A6822F480621A601A6842F400621A60E3
:102570005A6816057FF574AF20287FF665AF10F511
:10258000803F7FF46DAF67E71A6822F480621A60BB
:102590005A6812F4006225D01A68002122F4806281
:1025A0001A6004915A6904929B690493049B2BE678
:1025B000002323632BE701287FF465AE5FE610F567
:1025C000803F7FF460AE5AE620462363FFF72EFA81
:1025D000FFF792BBEBFFFEFF1400010001010001B9
:1025E0000000002005925A6905929A690592059AA1
:1025F0001A6842F400721A6006E601287FF430AFD0
:102600002AE701289CD11A6822F480621A60B4E695
:10261000196821F480611960596821F4E0615960FA
:102620001969636A1970638D013B20219BB2638530
:1026300084F83D10636A94F83E1084F83E2001331C
:10264000402963627FF4DBAE20462263FFF7EEF998
:10265000FFF752BBF0B503685D69596890F83E20FA
:10266000EE0583B0D2B205F400740CD5CF0505F4A5
:1026700080660BD56FF480715961002C3FD1002E1C
:102680006DD0012408E01CB1C9051BD403B0F0BD16
:102690006E052ED5C905F9D5418D90F83D60076BC3
:1026A000202A89B2F6B237D06FF48061102A5961BE
:1026B00044F0040127D0402A25D02F0521D541F030
:1026C00008040BE0022405F480666FF40071596180
:1026D000002EE1D12F0504D544F008046FF4006208
:1026E0005A61036C1C43046403B0BDE8F040FFF77B
:1026F0001DBA2C05CAD5CA05C8D50824EEE703249F
:10270000E3E70C46EDE71A682E0542F400721A6002
:10271000F7D544F00C04E1E7D9B906F0F702212A15
:1027200003D0282E15D1212F13D190F83D20C16A56
:102730000829D2B219D0202917D0212A05F4006522
:1027400034D06FF480625A61002DC5D1002CC8D1FD
:102750009CE76FF480625A6144F00401ADE72D05F7
:1027600001D50924BAE70124BBE7282AE5D1204A8C
:10277000C2625A68019022F4E0625A606FF480628B
:102780005A611A6822F480621A60002320220363CF
:1027900080F83D2080F83E30FFF7DCF815F4006F3C
:1027A0000198D3D0036844F0080497E71049C16248
:1027B00002630021202280F83D2080F83E105A68F4
:1027C000019022F4E0625A606FF480625A611A68E4
:1027D00022F480621A605A69120648BF1961FFF735
:1027E000B3F80198002DDDD1002C7FF47AAF4DE7CE
:1027F0000000FFFF002800F06A812DE9F041036826
:10280000DD0782B004462FD59F498A6802F00C028A
:10281000042A00F0EF808A6802F00C02082A00F017
:10282000E5806368B3F5803F00F0EE80B3F5A02F3C
:1028300000F07981944D2A6822F480322A602A6857
:1028400022F480222A60002B40F0E380FEF71EFD78
:10285000064605E0FEF71AFD801B642800F203819E
:102860002B689F03F6D423689D0728D5864A916874
:1028700011F00C0F00F09280916801F00C01082912
:1028800000F08880E368002B00F010817F4B7E4EC3
:1028900001221A60FEF7FAFC054605E0FEF7F6FC99
:1028A000401B022800F2DF8033689F07F6D53368AB
:1028B000226923F0F80343EAC203336023681A074E
:1028C00053D45D0730D5704A136C13F0805300F079
:1028D000818000256E4E3368D80540F1B480A3682E
:1028E000012B00F0C480052B00F02D81664E326F65
:1028F00022F001023267326F22F004023267002BAD
:1029000040F0BA80FEF7C2FC41F28838074605E085
:10291000FEF7BCFCC01B404500F2A580336F9B074F
:10292000F6D4002D40F00981A369D3B1564DAA68B1
:1029300002F00C02082A00F0CC80022B534B4FF01F
:1029400000021A6600F00981FEF7A0FC044605E0CB
:10295000FEF79CFC001B022800F285802B689B017F
:10296000F6D4002002B0BDE8F08163690BB3474B99
:10297000454E0122C3F8802EFEF788FC054604E090
:10298000FEF784FC401B02286DD8736F9B07F7D5B8
:10299000236896E7526851023FF574AF3A4A1268CD
:1029A000920744D5E268012A41D0012002B0BDE877
:1029B000F081364A344EC2F8803EFEF767FC054689
:1029C00004E0FEF763FC401B02284CD8736F9F079E
:1029D000F7D4DDE70193136C43F080531364136C59
:1029E00003F080530193019B012573E74A6851026C
:1029F0007FF517AF244A126892037FF535AF6268FE
:102A0000002A7FF431AFD0E71F4A136843F48033C4
:102A10001360FEF73BFC1C4E054604E0FEF736FC57
:102A2000401B64281FD833689B03F7D51BE7164962
:102A300020690A6822F0F80242EAC0020A601A0716
:102A40007FF53FAF91E7336843F480733360FEF75F
:102A50001DFC07463368D9053FF541AFFEF716FC6C
:102A6000C01B0228F6D9032002B0BDE8F081064A57
:102A7000136F43F001031367FEF708FC024F06468D
:102A800041F288380BE000BF0038024000004742A6
:102A900000700040FEF7FAFB801B4045E3D83B6F17
:102AA0009A07F7D5002D3FF43FAF46E0424A434E28
:102AB0001360FEF7EBFB054604E0FEF7E7FB401B67
:102AC0000228D0D833689907F7D42368F7E60120A5
:102AD0007047012B3FF469AF6B68E26903F4800132
:102AE00091427FF462AF226A03F03F0191427FF48A
:102AF0005CAF616A47F6C0721A40B2EB811F7FF487
:102B000054AFA26A520803F44031013AB1EB024FCC
:102B10007FF44BAFE26A03F07063B3EB026F14BF54
:102B2000012000201EE7254B1A6842F480221A601B
:102B30001A6842F480321A606BE7204A136C23F063
:102B400080531364F0E61D4B1A6F42F004021A67BB
:102B50001A6F42F001021A678EE7FEF797FB0646EE
:102B600005E0FEF793FB801B02283FF67CAF2B6845
:102B70009901F6D4D4E90731626A0B4343EA821320
:102B8000D4E90A2052080C4943EA0063013A43EAB7
:102B9000024301226B600A66FEF778FB074D04468C
:102BA00005E0FEF773FB001B02283FF65CAF2B68C5
:102BB0009A01F6D5D5E600BF000047420038024032
:102BC000164908B58B6803F00C03042B1BD0082BA7
:102BD00001D0134808BD4A684B68496813F4800364
:102BE00002F03F0211D10E48C1F38811A1FB000190
:102BF000FDF77EFC094B5B68C3F3014301335B00C7
:102C0000B0FBF3F008BD074808BD0648C1F38811C2
:102C10000023A1FB0001FDF76BFCEBE7003802404D
:102C20000024F40000127A00002800F08780484A4F
:102C3000136803F007038B422DE9F0410D4604466B
:102C400009D2CBB21370136803F007038B4202D092
:102C50000120BDE8F0812368980714D5590704D5F1
:102C60003C498A6842F4E0528A601A0704D539491F
:102C70008A6842F460428A603649A0688A6822F015
:102C8000F00202438A60DF0721D56268012A57D02B
:102C9000931E012B2F4B1B684DD99907D8D52D4E6C
:102CA000B36823F003031343B360FEF7EFFA41F276
:102CB0008838074604E0FEF7E9FAC01B404544D8CF
:102CC000B368626803F00C03B3EB820FF3D1204AC0
:102CD000136803F00703AB4206D9EBB21370136815
:102CE00003F00703AB42B3D123685A0706D519494D
:102CF000E0688A6822F4E05202438A601B0707D525
:102D0000144A2169936823F4604343EAC103936042
:102D1000FFF756FF0F4A104C92681049C2F3031296
:102D20000346A25C0E48D34000680B60FDF7CCFF61
:102D30000020BDE8F0819801B1D489E701207047F7
:102D4000044B1B689E03AAD482E7032081E700BFDF
:102D5000003C024000380240E07F000800000020F4
:102D600008000020044B05499B68054A0868C3F326
:102D70008223D35CD8407047003802400000002016
:102D8000D87F0008044B05499B68054A0868C3F3CF
:102D90004233D35CD8407047003802400000002026
:102DA000D87F00080E4B0F2210B402609A680D4CB9
:102DB00002F0030242609A6802F0F00282609A68B0
:102DC00002F4E052C2609B68DB0803F4E053036145
:102DD00023685DF8044B03F007030B60704700BFE6
:102DE00000380240003C024000285CD070B5044628
:102DF000406A002847D00023C4E9043394F85130D6
:102E00000022A26203F0FF01002B42D09446216809
:102E1000A568A269266A022384F851300B6823F062
:102E200040030B60636805F4044503F482732B438D
:102E3000E56805F400652B43256905F002052B4381
:102E4000656905F001052B43E56906F0800E02F483
:102E5000007605F0380533432B43120C00F01000C8
:102E600043EA0E0302F0040243EA0C0302430B6040
:102E70004A60CB69002023F400630122CB616065C6
:102E800084F8512070BD6368B3F5827FB6D0E061ED
:102E9000B4E7204684F85010FDF77EFED4E909031C
:102EA00003F4005CB3E70120704700BF704700BF28
:102EB00030B502685168936813F0400F85B004463E
:102EC000C3F3801519D113F0010F2FD1980745D402
:102ED0009D0600F19180DB050DD58D060BD5636D48
:102EE000002043F008036365039093680393039BFA
:102EF000636D002B5AD105B030BD13F002001AD01B
:102F000008067CD413F020002CD18D06F3D594F85C
:102F10005150032D79D0656D45F00405656500902D
:102F2000D06800909068009000983AE011F0400F4F
:102F3000CCD0036C65E08D06DDD594F85150032D9F
:102F400063D0656D45F0040565650090D06800901C
:102F5000906800900098980623D515E008064ED496
:102F60009806B8D58806C6D575B194F851000328DF
:102F70004BD0606D40F00400606500200090D06888
:102F80000090906800900098606D40F001006065CE
:102F90000020029090680290106820F040001060BD
:102FA0000298DB059BD4636D002BA4D053680120ED
:102FB00023F0E0038D07536084F851002DD053684F
:102FC000E06C23F00303536040B1164B0365FEF73A
:102FD000D7FA18B1636D43F040036365A06C002815
:102FE00089D0104B0365FEF7CBFA002883D0636DC0
:102FF00043F0400363657EE78806C5D47BE7636CD6
:10300000204605B0BDE83040184700230193D3683F
:10301000019393680193019B6DE72046FFF746FFFC
:1030200069E700BF2930000808B5806B0023C3871B
:10303000C386FFF73BFF08BD704700BF90F83D30E7
:10304000012B27D103681449022280F83D20DA6859
:103050008B4242F00102DA6011D0B3F1804F0ED002
:103060000E4A93420BD002F58062934207D002F5DC
:103070008062934203D002F59A32934204D19A6857
:1030800002F00702062A03D01A6842F001021A6011
:1030900000207047012070470000014000040040FC
:1030A000704700BF704700BF704700BF704700BF48
:1030B000036870B5DE681D69A907044601D5B2072B
:1030C00051D4690701D572073AD42B0701D53007CF
:1030D00024D4EA0601D5F30610D4E80701D5F10798
:1030E00057D42A0601D533065BD4680601D571068C
:1030F0005FD4AA0601D5B30642D470BD23686FF031
:1031000010021A6108222277DB6913F4407F2046FF
:1031100063D0FFF7C7FF00232377DEE723686FF054
:1031200008021A6104222277DB699907204651D1EF
:10313000FFF7B6FF2046FFF7B7FF00232377C8E766
:1031400023686FF004021A61022222779B6913F44C
:10315000407F20463BD1FFF7A3FF2046FFF7A4FFA7
:1031600000232377B1E76FF002021A610122027790
:103170009B699B0725D0FFF795FF00232377A0E7E6
:1031800023686FF0200220461A61BDE8704000F00D
:10319000ABB823686FF001021A612046FDF7CEFC40
:1031A0009FE723686FF080021A61204600F09EF8C6
:1031B0009BE723686FF040021A612046FFF776FF15
:1031C00097E7FFF76DFF2046FFF76EFFD5E7FFF7A4
:1031D00069FFC5E7FFF766FFAFE7FFF761FF20462E
:1031E000FFF762FF97E700BF70B4264E4A69036895
:1031F0008D680C68B04235D0B0F1804F1CD0A6F578
:103200007C46B04218D006F58066B04214D006F570
:103210008066B04210D01C4EB04211D006F58066D8
:10322000B0420DD006F58066B04209D023F080038D
:10323000C5621A4384620CE04E6823F07003334386
:10324000C968C56223F440730B4323F080031A431B
:1032500084620368012143F00403036070BC416190
:10326000026070474E6823F070033343CE68C56236
:1032700023F44073846233430969016323F08003BC
:103280001A43E6E7000001400040014050B310B58A
:1032900090F83D30044603F0FF02F3B121460223CB
:1032A00084F83D3051F8040BFFF79EFF012384F8AA
:1032B000463084F83E3084F83F3084F8403084F85B
:1032C000413084F8423084F8433084F8443084F844
:1032D000453084F83D30002010BD80F83C20FFF7D9
:1032E000ABFEDBE701207047704700BF704700BFAF
:1032F000026802F10C0353E8003F23F4907302F1DB
:103300000C0C4CE800310029F3D102F1140353E80E
:10331000003F23F0010302F1140C4CE800310029B6
:10332000F3D1036B012B05D02022002380F842202B
:103330000363704702F10C0353E8003F23F01003CE
:1033400002F10C0C4CE800310029F3D1ECE700BF8E
:103350000268116938B50446C068A36821F4405179
:1033600001432069116103436069D1680343E06947
:1033700021F4164121F00C0103430B43D360536940
:10338000A069234923F4407303438A42536105D063
:10339000204B9A4202D0FFF7E5FC01E0FFF7F2FC78
:1033A000E2691921B2F5004FD4E90053A0FB0101F5
:1033B00013D09A009B0FFDF79BF8174AA2FB00134E
:1033C0005B09642101FB130000013230A2FB0020E5
:1033D0001B0103EB5013AB6038BDDA184FF000034C
:1033E0005B41FDF785F80C4AA2FB003149096423D3
:1033F00003FB1103DB003233A2FB0323C3F34212AE
:103400001B0902EB011203F4F8731344AB6038BDDF
:1034100000100140001401401F85EB5170B310B53E
:1034200090F84130044603F0FF0213B322682423CE
:1034300084F84130D36823F400532046D360FFF76B
:1034400087FF2368196921F490411961596921F0B6
:103450002A015961D96800224FF0200C41F4005133
:10346000D960626484F841C084F842C01046626347
:1034700010BD80F84020FDF755FDD7E701207047CB
:103480002DE9F843044690F84100202853D188469E
:1034900009B1164612B90120BDE8F8831F464FF066
:1034A00000092123C4F8449084F84130FDF7EEFE72
:1034B000A368A684B3F5805F0546E6844AD0E28C13
:1034C000236892B2AAB11A68120604D4791C1ED1DC
:1034D0001A681606FCD5B8F1000F26D018F8012B93
:1034E0005A60E28C013A92B2E284E28C92B2002AF3
:1034F000E9D11A68560604D47A1C1FD11A685006FE
:10350000FCD5202384F841300020BDE8F883FDF786
:10351000BDFE401B874223D317B32368DA681A68BD
:103520001006F4D5B8F1000FD8D139F8022BC2F348
:1035300008025A60D5E70220BDE8F883FDF7A6FE31
:10354000431B9F420CD35FB12368DA681B6859069E
:10355000F4D5D6E72369002BB1D1C1469846AEE732
:10356000202384F841300320BDE8F88390F841C05F
:10357000BCF1200F34D12DE9F041044601B112B95C
:103580000120BDE8F081E284A284A06BDFF864E052
:10359000174F21625FFA8CF51346DFF85CC0226892
:1035A00000264FF021086664043284F84180C0E9A7
:1035B0000FECC0E91376FDF75DFF98B922686FF054
:1035C0004003136002F1140353E8003F43F080030B
:1035D00002F1140444E800310029F3D1BDE8F08180
:1035E000022070471023636484F84150C8E700BF8D
:1035F0005D360008FD3500084D36000808B5036843
:10360000806B1B6813F480731AD10268C38402F1C3
:10361000140353E8003F23F0800302F1140040E854
:1036200000310029F3D102F10C0353E8003F43F0CD
:10363000400302F10C0040E800310029F3D108BD3D
:1036400002F066FC08BD00BF704700BF08B5806B84
:10365000FFF7FAFF08BD00BF704700BF08B5806BD9
:103660000268516990F84130212B0BD0526990F8D3
:103670004230222B1ED0436C43F010034364FFF70B
:10368000EBFF08BD0906F1D50023C38402F10C034A
:1036900053E8003F23F0C00302F10C0C4CE800316A
:1036A0000029F3D1202380F84130526990F842304C
:1036B000222BE0D15306DED50023C385FFF718FE89
:1036C000D9E700BF08B5806B0023C385FFF7C4FFAF
:1036D00008BD00BF704700BF806B08B5012343637E
:1036E000036B012B02D002F037FC08BD818D490825
:1036F000FFF7F0FF08BD00BF08B50368806B1A68CC
:1037000012F480722BD10368C28503F10C0252E8D7
:10371000002F22F4807203F10C0C4CE800210029E8
:10372000F3D103F1140252E8002F22F0010203F159
:10373000140C4CE800210029F3D103F1140252E8E3
:10374000002F22F0400203F1140C4CE80021002964
:10375000F3D1202280F84220026B012A07D00023F7
:103760004363036B012B0FD002F00EFC08BD03F185
:103770000C0252E8002F22F0100203F10C0C4CE86E
:1037800000210029F3D1EAE7818DFFF7A3FF08BDEF
:1037900090F84230222B48D183680168826AB3F5E1
:1037A000805F43D0002B4AD10369002B47D14B687F
:1037B000DBB21370826A0132C38D8262013B9BB21D
:1037C000C385002B31D100B50268D16821F02001FA
:1037D00083B0D160D16821F48071D16051694FF01C
:1037E000200C21F00101516180F842C04363016B5C
:1037F000012928D1036302F10C0353E8003F23F0B1
:10380000100302F10C0C4CE800310029F3D11368CD
:10381000DB0605D501911368019353680193019B61
:10382000818DFFF757FF03B000BD70470369002B80
:10383000BDD14B68C3F3080322F8023BBCE74B68D9
:1038400003F07F03B5E702F09FFB03B000BD00BFAC
:1038500070B505682B68EE68696913F00F0F82B0C8
:1038600004462A4613D19D0602D5B10600F1E08038
:10387000216B01293DD0180602D5310600F1AE803A
:103880005B0602D5750600F1C88002B070BD11F06C
:10389000010140F08D8016F4907FE9D0DA070BD556
:1038A000F00540F15381626C580742F001026264F6
:1038B00040F1CD8000297FD1980740F1CA801907D7
:1038C00000F10381626C002ADFD09A0602D5B306AC
:1038D00000F140816B69626C03F0400302F0080262
:1038E00053EA0206204640F0C080FFF7B5FE66644A
:1038F000CBE7D806BFD5F106BDD5002301931368E9
:10390000019353680193019B5169A38D4D0640F1CA
:10391000E380E06B0168496889B2002900F01F81EB
:10392000994280F01C81E185C169B1F5807F36D074
:1039300002F10C0353E8003F23F4807302F10C05FD
:1039400045E800310029F3D102F1140353E8003FA8
:1039500023F0010302F1140545E800310029F3D1F9
:1039600002F1140353E8003F23F0400302F1140571
:1039700045E800310029F3D1202384F84230216347
:1039800002F10C0353E8003F23F0100302F10C0591
:1039900045E800310029F3D1FDF7A8FDA38D0222EF
:1039A0006263E18D591A204689B2FFF793FE6CE7F6
:1039B000DA0747D4580740D5626C990742F00202F3
:1039C00062643CD5626C42F0040262641A077FF5BF
:1039D00079AF626C42F00802626473E794F8413098
:1039E000212B7FF452AFA168236AB1F5805F00F00C
:1039F000BF80591C21621B785360E38C013B9BB252
:103A0000E384002B7FF441AFD36823F08003D360BD
:103A1000D36843F04003D36037E7D368202123F015
:103A20004003D360204684F8411002F071FA2CE77D
:103A300002B0BDE87040FFF7ABBE9907C2D41A07C9
:103A4000C7D43FE7F0053FF52EAF5A07B4D4980727
:103A50003ED418077FF536AF06F020020A43B8D1EE
:103A6000636C002B7FF436AF0FE7FFF741FC6B6907
:103A70005E0626D505F1140353E8003F23F040030A
:103A800005F1140141E8003262B1226802F1140329
:103A900053E8003F23F0400302F1140040E80031F6
:103AA0000029F3D1E06B60B1374B0365FDF768FD8A
:103AB00000283FF4EAAEE06B036D02B0BDE8704051
:103AC00018472046FFF7C8FDDFE6B20681D4C7E7F6
:103AD00000293FF4F4AE75E7E08DE18D89B280B244
:103AE00000293FF4D2AE1B1A99B200293FF4CDAEA3
:103AF00002F10C0353E8003F23F4907302F10C052C
:103B000045E800300028F3D102F1140353E8003FE8
:103B100023F0010302F1140545E800300028F3D139
:103B2000202384F84230206302F10C0353E8003F65
:103B300023F0100302F10C0545E800300028F3D112
:103B4000022363632046FFF7C5FD9EE65A073FF553
:103B5000B3AE7CE72046FFF71BFE2568BAE6994224
:103B60007FF493AEC369B3F5807F7FF48EAEE7E751
:103B7000216900297FF43DAF33F8021BC1F308012E
:103B80005160236239E700BFC536000830B50446EE
:103B900013462220002283B02568626484F8420024
:103BA000E06BA162A38502650A46291D1F4DC5630E
:103BB0001F4D05641F4DC564FDF75CFC70BB236899
:103BC00001901A68019259682269019101995AB1CC
:103BD00003F10C0252E8002F42F4807203F10C044E
:103BE00044E800210029F3D103F1140252E8002F28
:103BF00042F0010203F1140444E800210029F3D14A
:103C000003F1140252E8002F42F0400203F11404C1
:103C100044E800210029F3D103B030BD1022202355
:103C20000120626484F8423003B030BDF9360008E8
:103C3000D93600085D36000890F842C0BCF1200F6C
:103C400005D130B401B122B9012030BC7047022047
:103C500070470024046330BCFFF798BF03322DE99E
:103C6000F04104460F46984622F00306EFF3108217
:103C700072B6264B1D68256282F3108831462046B5
:103C800000F0CCF8EFF3108272B628B1386082F3FE
:103C900010880020BDE8F081236AAB42EBD1386088
:103CA000B8F1000F25D01A4B196811BBD5F8AC102C
:103CB0001848EC660131C5F8AC10A16AA866481C2A
:103CC000C5E91E67A062C9B96562C5E91C5509212D
:103CD00029630121A9631968C5F84C800131196075
:103CE00082F31088284600F0F5FFD5F88400BDE87F
:103CF000F08182F310881020BDE8F081616A2967A5
:103D0000486F686705674D67E1E700BF9C5B00206F
:103D1000045B0020193D000810B5EFF3108372B664
:103D20001A4A846E944202D083F3108810BDD0F8F2
:103D3000AC208A42F8D1C26E002AF5D0144914682A
:103D40008C42F1D1916A0029EED0002401398466B9
:103D50009162C1B1D0E91C144C672167546A844256
:103D600011D0026B092ADFD10A490A6810240132F6
:103D7000C0F884400A6083F3108800F0B7FEEFF3C8
:103D8000108372B6D0E75162EBE700BF193D00081F
:103D900045545942045B0020F8B516460F461D46AF
:103DA00034220021044603F023F825F00303C4E97C
:103DB0000663A3F1080102223344E2601A46C4E913
:103DC0000171C4E90466114943F8044C42F8086DD6
:103DD0000023C6E900212362EFF3108172B60C4A7A
:103DE0000C48136820600C4843B9E4620460246303
:103DF0000133136081F310880020F8BD0068056B63
:103E00000463EC62C4E90B05F2E700BFEEEEFFFFCE
:103E1000C85A002045545942CC5A0020F0B5EFF35F
:103E2000108C72B6C2688368941E03EBC4038B4285
:103E300014D9384B384C1E68436906625D68A54248
:103E400002F101020FD01B68002762BB8CF31088BF
:103E5000EFF3108C72B6036A9E4219D18CF310886E
:103E60000020F0BD07B943611D68EC1A083CA1426F
:103E700031D9D5E900E4284FBC421ED042BB8CF3B7
:103E80001088EFF3108C72B6036A9E42E6D00127C9
:103E9000C268436906620132002ADFD01E4C5D68A9
:103EA000A542DFD01B688CF31088EFF3108C72B63C
:103EB000046AB442ECD1013AEEE7C468C3F800E00A
:103EC000013CC4604469AC4208BF43610127BCE7C0
:103ED000013A7346FAE7002CC0D0621A132A0AD9B5
:103EE000C268561C01F108020C469D501A440A494A
:103EF0005160C6601A60826858604169083A121BB6
:103F00009942826004BF1A6842618CF3108803F101
:103F10000800F0BD9C5B0020EEEEFFFF38B500F01E
:103F20009BFC01F0B9F80D480D490E4A0E4C0F4D9F
:103F3000002303600B6013600D480E490E4A236096
:103F400003600B6013600D4C0D480E490E4A2B6048
:103F5000236003600B60136038BD00BFF05A00207F
:103F6000EC5A0020E85A0020E45A0020F45A0020BD
:103F7000E05A0020D45A0020D05A0020CC5A002009
:103F8000C85A0020DC5A0020D85A002010B50E4C28
:103F9000236813F10F3F0AD04FF0F0332360FCF792
:103FA0001FF9FFF7BBFF094A136801331360084A82
:103FB0004FF0F03310682360FCF730FC00232360DF
:103FC000BDE81040FCF75CB90C000020045B002049
:103FD000C45A002010B5EFF3108372B61A4A846EEB
:103FE000944202D083F3108810BDD0F8AC208A42EE
:103FF000F8D1C26E002AF5D0144914688C42F1D170
:10400000D1690029EED0002401398466D161C1B1A3
:10401000D0E91C144C6721679469844211D0026B6B
:104020000D2ADFD10A490A681D240132C0F88440F4
:104030000A6083F3108800F059FDEFF3108372B625
:10404000D0E79161EBE700BFD53F00084554554DDF
:10405000045B002070B50446EFF3108372B60D4E7A
:10406000D0F8A40032680132326028B93268013ACF
:10407000326083F3108870BD0125856083F310885A
:1040800000F05CF9EFF3108372B6D4F8A4000028B6
:10409000F3D1EBE7045B002070B5044615460E46ED
:1040A0003422002102F0A4FE66602561EFF3108146
:1040B00072B60C4B0C480D4A20600D48186013680E
:1040C0000C4843B92462046064620133136081F3D5
:1040D0001088002070BD0068456A44622C62C4E903
:1040E0000805F2E7005B00204554554DD85A0020E2
:1040F00055400008DC5A0020F8B5EFF3108C72B67A
:10410000384A83681468E3B90123C0E90234A4B1D2
:104110000369012B03D1E26A426120238362D4F850
:10412000A430002B40D01A6B1863D062C0E90B3268
:10413000D4F8A0300133C4F8A0308CF310880020EC
:10414000F8BDC268A24229D021B3274B1D680DBB20
:10415000D4F8AC50254EE0660135C4F8AC50C569C2
:10416000A66635BB8461C4E91C440135C561E164C0
:104170001968013119600D2323630123A3638CF3B4
:1041800010880369012B1BD0204600F0A3FDD4F852
:104190008400F8BD8CF310881D20F8BD01338360C6
:1041A0008CF310880020CBE7C4F8A400C0E90B0012
:1041B000BEE786692667776F67673C677467D4E7F1
:1041C000E16A836A8B42D2F89C3088BF816299424F
:1041D000D36A38BFC2F89C109942D5D2104600F07D
:1041E00053F8D1E79C5B0020045B0020D53F00081A
:1041F00070B5EFF3108C72B6C569012D3DD9826997
:10420000022D116F34D01F4E336801339646336050
:1042100005E0196F8B421A4614D025469E46CC6A9B
:10422000D36A9C4238BF0A468CF31088EFF3108C97
:1042300072B6D0E906347345EBD1A542E9D1096FD6
:104240008B42EAD13168934201F1FF31316009D0EC
:10425000D2E91C4161670C67596FC2E91C310A67DA
:104260005A6782618CF3108800F0E6FB002070BD75
:10427000CC6AD36A9C4238BF81618CF310880020DD
:1042800070BD00BF045B00202DE9F04104460D46DF
:10429000EFF3108272B6036B53B1D0F89830E1623D
:1042A0008B4228BF0B46C36382F31088BDE8F081C0
:1042B0001F49C3640B681F4ED0F82C803768023347
:1042C0000B600E2303630123836382F3108800F0E5
:1042D00001FDEFF3108272B6D4F89830E562AB427C
:1042E00028BF2B46E36382F31088204600F0FEFBD4
:1042F000EFF3108272B633689C4207D0216B29B964
:10430000D96AE36A8B4205D8BC4208D082F3108890
:10431000BDE8F081E06B8342F8D98142F6D3A8452D
:1043200038BF0549346038BF41F82340EEE700BF8D
:10433000045B0020985B0020085B0020EFF31082F4
:1043400072B68368002B62D07D492DE9F04109687F
:104350000446C0688842944604D07A4D29680029F2
:1043600000F09A80013BA360002B4BD1002849D07C
:10437000D0F8A030013BC0F8A030002B00F09180B5
:10438000D4E90B311963CB62D0F8A410A14200F03C
:104390008880A6692369002E31D0012BD0F8947053
:1043A00039D0E369674D012B6AD9002E7CD04FF0DC
:1043B0000008D6F8A020002A40F09B80C6F8A44050
:1043C000C4E90B440132C6F8A020013B0122E6609B
:1043D000E361A260002B40F08680A3612B6801336B
:1043E0002B600023B366C6F884308CF310882369F1
:1043F000012B00F08680304600F078FB04E0002BB3
:10440000CBD1E36082F310880020BDE8F08182F315
:1044100010881E2070474B4D2B6801332B6082F3B0
:104420001088D0F8A41020260B464BB11A69012A37
:1044300003D19A6A964228BF1646DB6A9942F4D1A4
:10444000EFF3108C72B62A68E369C0F89C60B7423B
:1044500028BF3746013A012B2A6010D92269012A68
:104460005BD12B6801332B608CF310882046FFF75B
:10447000BFFEEFF3108C72B62B68013B2B60A66970
:1044800096B12369012B2AD1F36A63612023A362C9
:10449000D4F80C80E3698CE782F310881E20BDE815
:1044A000F081C0F8A43074E72B6801332B608CF3E3
:1044B0001088E0682023A362C36ABB4202D0394659
:1044C000FFF7E2FEEFF3108272B62B680021013B8A
:1044D0002B60E16082F3108800F0AEFA94E7E369A4
:1044E0004FF0000865E7336F726FA3615A67136777
:1044F00074E7D6F8A410086B0C63C462C4E90B100F
:1045000060E7E36973B9D8F82C30BB423FF473AF6E
:1045100039464046FFF7B8FE6DE7A669002E7FF4E6
:1045200046AFC1E72046FFF763FEEFF3108272B695
:10453000A3690BB1DB6AA36282F31088E3E700BFD3
:104540009C5B0020045B002010B5EFF3108372B673
:104550001A4A846E944202D083F3108810BDD0F8BA
:10456000AC208A42F8D1C26E002AF5D014491468F2
:104570008C42F1D111690029EED000240139846602
:104580001161C1B1D0E91C144C672167D468844221
:1045900011D0026B062ADFD10A490A680D240132C4
:1045A000C0F884400A6083F3108800F09FFAEFF3AC
:1045B000108372B6D0E7D160EBE700BF4945000831
:1045C000414D4553045B0020002330B4C0E9011283
:1045D0000360C360036143618361EFF3108172B6CE
:1045E0000B4A0C4C136804600B4C4BB940612060C3
:1045F00080610133136081F31088002030BC704764
:104600002468A569A0616861C0E90545F1E700BFBC
:10461000F05A0020414D4553F45A0020F8B5EFF30D
:10462000108272B683682BB1013B836082F31088DD
:104630000020F8BD31B3174B1C681CBB164C174E3D
:104640002468D4F8AC50E0660135C4F8AC50056974
:10465000A666DDB1C6682667776F67673C677467D3
:1046600001350561062020630120A0631868E1641C
:104670000130186082F31088204600F02BFBD4F83C
:104680008400F8BD82F310880D20F8BDC460C4E931
:104690001C44E5E7045B00209C5B002049450008C2
:1046A00038B50346EFF3108172B6026932B98268F9
:1046B0000132826081F31088002038BD013AC06861
:1046C00013D0046F456FDC6065672C67084C1A6176
:1046D0002368002501338566C0F88450236081F388
:1046E000108800F003FA002038BDDA60EEE700BF62
:1046F000045B00202DE9F84FDDF828900B9C0C9D01
:10470000DDF838A08346884648461746EF21224602
:104710001E4602F06DFB24F0030309F1030424F0AC
:104720000304A1454FF0B0024FF0000158460CBF02
:10473000A3F10409A3F1080902F05AFB2023CBF8E6
:104740009C300D9BCBF814909D4209F1FF393A4BF8
:10475000CBF80C404FF003024C44CBE9153BCBE9BE
:104760001176CBE906AA3549CBF82880CBF8104062
:10477000CBF82C50CBF8945004BFCBF83C50CBF87E
:104780009850CBF830205846FBF7DAFDDBF80830BC
:10479000CBF8A830EFF3108172B6294A294BCBF839
:1047A00000301368EBB92848CBE922BBC0F800B051
:1047B00001331360254A1368013313600F9B012BEB
:1047C0002AD1EFF30582224B1B681343B3F1F03F6C
:1047D00012D281F31088584600F088F90020BDE815
:1047E000F88F19480068D0F88C40C0F88CB0C4F835
:1047F00088B0CBE92204DBE7164B1C68002CE8D01C
:10480000E36AE56BE36381F31088584600F06EF9C4
:10481000E5630020BDE8F88F81F31088EFF3108185
:1048200072B61368013B136081F3108800F004F93D
:104830000020BDE8F88F00BF35500008C5480008CB
:10484000905B002044524854945B0020045B00209D
:104850000C000020985B00200F49104A104838B522
:104860000024104B0C60104D146020211960802230
:1048700021462C6002F0BCFA0C490D4A0C600D4830
:104880000D49136804600C600C480D49046043F046
:104890008D730C60136038BD9C5B0020985B00201A
:1048A000085B0020885B00208C5B0020945B00206C
:1048B000FC5A0020905B0020045B0020005B00207D
:1048C000F85A0020114B10B51C68D4E911309847F4
:1048D0000F4B1B680BB120469847EFF3108172B65F
:1048E0000C4A01232363A363136800200133E064AF
:1048F000136081F31088EFF3148323F0040383F330
:1049000014882046BDE8104000F0E4B99C5B00200C
:10491000005B0020045B002010B5EFF3108272B63C
:10492000144B1C687CB1EFF30581134B1B680B43E0
:1049300009D1124B9C4206D010B982F3108810BDE9
:104940000F4B196819B182F31088132010BDC4F8F9
:1049500084101968E0640131196004210123216386
:10496000A36382F31088204600F0B4F9D4F88400E1
:1049700010BD00BF9C5B00200C000020B45F002035
:10498000045B0020EFF310810A4672B6002840D085
:1049900010B4214B04689C4204D082F310885DF867
:1049A000044B7047C368002BF7D0D0F8A840002C08
:1049B000F3D081F31088A4EB030C4FEAAC02520849
:1049C00003EB820153F82220B2F1EF3F14BF0C46F3
:1049D0000B46BCF10C0FEED8B2F1EF3F04D151F809
:1049E000043FB3F1EF3FFAD0EFF3108272B60A4BF7
:1049F00004689C42D1D1C3688B42CED2D0F8A83093
:104A00008B42CAD90B68B3F1EF3F18BFC0F8A810AA
:104A1000C3E781F3108870474452485410B5EFF350
:104A2000108472B6034B1B6803B1984784F3108857
:104A300010BD00BFF85A0020284B1B68FBB9284A5C
:104A4000284B10B51B681468A34217D0EFF31083EE
:104A500072B61CB1244A2168914211D083F31088A8
:104A60004FF0E0234FF08052C3F8042DEFF305839D
:104A700023B9EFF3108362B683F3108810BD70473B
:104A8000A268D4F8A8108A42E16838BFC4F8A82008
:104A90000A68B2F1EF3F09D12269D2F80120B2F1E0
:104AA000EF3F03D1D4F8A820914209D983F31088AD
:104AB0002046FFF7B3FFEFF3108372B6D4F8A820B7
:104AC00052F8042CB2F1EF3FC8D083F3108820468F
:104AD000FFF758FFEFF3108372B6BFE7045B0020C7
:104AE000985B00209C5B002044524854F8B5044673
:104AF000EFF3108372B618B16F4A0168914251D03A
:104B000083F31088EFF3108672B6636E002B78D0B3
:104B100004F14C0000F050FB684DA26B2B68013B88
:104B20002B60236B1ABB63BB654A664B1B6886F31D
:104B3000108814689C4219D0EFF3108372B61CB130
:104B40005D4A216891425ED083F310882B686BB96F
:104B50004FF0E0234FF08052C3F8042DEFF30583AC
:104B600023B9EFF3108362B683F31088F8BD013BDD
:104B7000012BD9D9636B002B3ED1514AA363236328
:104B8000D3E7636B002B37D1E16A4F4A236352F8B6
:104B90002130002B67D05A6A14625C626262236221
:104BA000474AC2E78268D0F8A8108A42C16838BF75
:104BB000C0F8A8200A68B2F1EF3F05D10269D2F827
:104BC0000120B2F1EF3F49D083F310882046FFF770
:104BD00025FFEFF3108372B6D4F8A82052F8042C06
:104BE000B2F1EF3F8CD083F310882046FFF7CAFE66
:104BF000EFF3108372B683E703220023C4E90C238A
:104C000092E7E36488E7A268D4F8A8108A42E168D2
:104C100038BFC4F8A8200A68B2F1EF3F05D1226975
:104C2000D2F80120B2F1EF3F3FD083F31088204645
:104C3000FFF7F4FEEFF3108372B6D4F8A82052F811
:104C4000042CB2F1EF3F3FF47FAF83F3108820468E
:104C5000FFF798FEEFF3108372B675E7D0F8A8203F
:104C60009142BBD9B0E7194842F821400368184F78
:104C700001228A40134303603B688B42C4E9084425
:104C80007FF652AF0E4A396013689BB1DB6B8B42E3
:104C90007FF64BAF146086F310881468EFF310832F
:104CA00072B6002C7FF44CAF4EE7D4F8A8209142A6
:104CB000C5D9BAE7146038E744524854045B002071
:104CC000985B00209C5B0020085B00208C5B002030
:104CD000885B0020F8B5764B04461E68EFF310831E
:104CE00072B618B1734A016891422ED083F31088CE
:104CF000EFF3108772B6A64258D06F4D2B68013B78
:104D00002B60A36B012B5DD06C4B87F310881C6864
:104D1000B44219D0EFF3108372B61CB1654A216812
:104D200091426ED083F310882B686BB94FF0E0236B
:104D30004FF08052C3F8042DEFF3058323B9EFF34E
:104D4000108362B683F31088F8BD8268D0F8A8108B
:104D50008A42C16838BFC0F8A8200A68B2F1EF3FA4
:104D600006D10269D2F80120B2F1EF3F00F088804D
:104D700083F310882046FFF751FEEFF3108372B6DD
:104D8000D4F8A82052F8042CB2F1EF3FAED083F350
:104D900010882046FFF7F6FDEFF3108372B683F319
:104DA0001088EFF3108772B6A642A6D1F36C013BD0
:104DB000033303D806F14C0000F0D2F9404BE2690E
:104DC0001A609AE7226AE16A4FF0000C9442C4F834
:104DD00038C044D0636A3B4853621A6250F82130AD
:104DE000A34239D0354B1A68A2428ED1364A126896
:104DF00050F822201A6087F310882B68002BA3D16B
:104E000094E7A268D4F8A8108A42E16838BFC4F8D1
:104E1000A8200A68B2F1EF3F05D12269D2F801203B
:104E2000B2F1EF3F3ED083F310882046FFF7F6FD46
:104E3000EFF3108372B6D4F8A82052F8042CB2F124
:104E4000EF3F3FF46FAF83F310882046FFF79AFDE2
:104E5000EFF3108372B665E740F82120C2E71B4AE2
:104E600018488B4040F821C0116821EA0303136001
:104E700063B193FAA3F3B3FA83F3134A1360B1E770
:104E8000D0F8A82091427FF67DAF71E70E4A20212D
:104E900011600A4A136087F310882B68002B7FF497
:104EA00053AF43E7D4F8A8209142C6D9BBE700BF6F
:104EB0009C5B002044524854045B0020985B002017
:104EC000A45B0020085B0020885B00208C5B002036
:104ED000514B10B51C68EFF3108372B6002C45D00F
:104EE0004E4A2168914217D083F31088EFF3108C5B
:104EF00072B64B4A236B0021116053B9D4E90732D3
:104F00004849A361A2420B6003D0E36AE16B8B4284
:104F100036D08CF3108810BDA268D4F8A8108A424D
:104F2000E16838BFC4F8A8200A68B2F1EF3F05D1A4
:104F30002269D2F80120B2F1EF3F38D083F3108814
:104F40002046FFF76BFDEFF3108372B6D4F8A8206C
:104F500052F8042CB2F1EF3FC6D083F310882046FC
:104F6000FFF710FDEFF3108372B6BDE783F31088EF
:104F7000EFF3108372B62A4A146083F3108810BDD1
:104F800029492A4841F823200268294B51F8224038
:104F90001C608CF31088002CBDD0EFF3108372B628
:104FA0001E4A2168914207D083F3108810BDD4F8BF
:104FB000A8209142CCD9C1E7A268D4F8A8108A42AF
:104FC000E16838BFC4F8A8200A68B2F1EF3F05D104
:104FD0002269D2F80120B2F1EF3F17D083F3108895
:104FE0002046FFF71BFDEFF3108372B6D4F8A8201C
:104FF00052F8042CB2F1EF3FD6D083F3108820464C
:10500000FFF7C0FCEFF3108372B6CDE7D4F8A82009
:105010009142EDD9E2E700BF9C5B00204452485426
:1050200000610020A45B0020085B0020885B00205A
:10503000985B0020EFF3108C72B6026B042A07D045
:10504000826ED0F8AC108CF3108802B11047704714
:10505000034A1368013313608CF31088FFF746BDD1
:10506000045B0020EFF3108372B6024A106883F3EA
:105070001088704704610020EFF3108172B6044A73
:1050800013680133136081F310880248FFF72EBDC7
:10509000045B0020B45F0020F0B51E481E4A1F4B81
:1050A0001F49204F204E214D002487B0046014601A
:1050B0001F48204A0C601460214680220460184674
:1050C00001F096FE1C491D4A3A6003461C480B60DD
:1050D0001C49036080330B604FF4806131602C60A9
:1050E00002E03A6831682C6817480023CDE90021B6
:1050F000CDE90433CDE90244144B154A1549FFF7B5
:10510000F9FA0028EDD1144A144B1060186007B06A
:10511000F0BD00BF04610020A45B0020806000207F
:1051200000610020B05F0020AC5F0020A85F00207D
:10513000646000207060002074600020A85B002084
:105140007C60002078600020B45F00204D4954410D
:10515000E55100088C7E00086C600020686000202B
:1051600003685A1E033201D8826902B170470F4AA0
:105170000F4912680968202B28BF2023013B02EB4E
:105180008303994208D91A685AB15169086150617C
:10519000C0E904218361E9E7064A12685B1A1344F7
:1051A000F1E7C0E904001860F4E700BF7460002074
:1051B000786000207C600020836963B102699042BE
:1051C0000AD0416951610A611968814204BF936143
:1051D0001A600023836170471A688242F9D1002265
:1051E0001A60F6E7404B984200D070472DE9F04F27
:1051F000DFF80881DFF80891DFF808A183B06D4679
:1052000001AE0027EFF3108172B6D8F800301A68AB
:10521000009202B19561354A126843F8047B9342CB
:10522000C8F800305AD0C9F8007081F31088EFF345
:10523000108272B6009CC4B93BE0203B2360A6619B
:1052400024610194CAF8004082F31088EFF3108BB8
:1052500072B6019BCAF80070A34225D08BF3108868
:10526000EFF3108272B6009C1CB323690197A3422E
:1052700018D0616959610B619D6100932368202BEF
:10528000DBD8D4E90131E068236013B124610194D3
:105290003346A361CAF8004082F310880029D5D0B4
:1052A0008847D3E70023E8E7A7612046FFF758FFC8
:1052B000D4E7D9F8003073B90D480E4C03680321C8
:1052C000013321630121A163036082F3108820462A
:1052D000FFF700FD96E782F3108893E7064B1B6803
:1052E000C8F800309FE700BF4D4954417860002066
:1052F000045B0020B45F00207C600020746000200C
:10530000706000206460002050B330B41A4C05680F
:10531000A54202D0022030BC704741B312B3C46929
:1053200094421FD32BB1EFF30585144C24682C4312
:105330001FD1134C2568134CA54216D0EFF3058CF2
:105340000E4D2C6854EA0C0407D0EFF3058C2C6842
:1053500044EA0C04B4F1F03F07D330BCFEF77EBC46
:1053600002207047052030BC70471320D3E703208C
:10537000D1E70420CFE700BF455459420C0000207C
:105380009C5B0020B45F00202DE9F041069C08B131
:10539000342C02D00220BDE8F081884617461E4614
:1053A0000546EFF3108172B6274B1A6801321A6076
:1053B00081F31088254A1068254A146848B14FF0D7
:1053C000000C02E08445E46A03D0AC420CF1010C0D
:1053D000F8D1EFF3108172B61A68013A1A6081F3BE
:1053E0001088FFF729FBAC42D4D0EFB1632E19D956
:1053F000184B1A68184B9A4218D0EFF30583174AD6
:1054000011680B4306D0EFF3058312681343B3F121
:10541000F03F16D333463A4641462846BDE8F041B0
:10542000FEF7BABC0520B6E70320B4E7EFF3058327
:105430000A4A11680B4304D0EFF305831320136865
:10544000A9E71320A7E700BF045B0020C85A00208B
:10545000CC5A00209C5B0020B45F00200C00002090
:1054600008B1342B01D01C207047F8B50F46164602
:105470000546EFF3108172B6254A136801331360B5
:1054800081F31088234B1C68234B186840B100231C
:1054900002E08342246A03D0A54203F10103F8D15C
:1054A000EFF3108172B61368013B136081F310882B
:1054B000FFF7C2FAAC421CD0012E01D91F20F8BD63
:1054C000164A174B12689A4215D0EFF30583154A16
:1054D00011680B4306D0EFF3058312681343B3F151
:1054E000F03F13D3324639462846BDE8F840FEF770
:1054F000D3BD1C20F8BDEFF305830A4A11680B43A6
:1055000004D0EFF3058313201368F8BD1320F8BD12
:10551000045B0020DC5A0020D85A00209C5B00204D
:10552000B45F00200C00002018B1164B02689A42AC
:1055300001D01C20704710B489B9134BEFF3058CD0
:105540001A6852EA0C0206D0EFF305821B68134377
:10555000B3F1F03F13D35DF8044BFEF7CDBDEFF38D
:10556000058C094B1A6852EA0C0204D1074C084A10
:1055700024689442E2D104205DF8044B7047132064
:10558000FAE700BF4554554D0C0000209C5B0020FD
:10559000B45F002018B10B4B02689A4201D01C2066
:1055A0007047EFF30581084A13680B4306D0EFF309
:1055B000058113680B43B3F1F03F01D3FEF7BEBE84
:1055C000132070474554554D0C00002008B11C2B8A
:1055D00001D00C207047F8B50F4616460546EFF38C
:1055E000108172B61E4A13680133136081F310886C
:1055F0001C4B1C681C4B186840B1002302E083421E
:10560000646903D0A54203F10103F8D1EFF31081DF
:1056100072B61368013B136081F31088FFF70CFA30
:10562000A54218D0114A124B12689A4215D0EFF3D6
:105630000581104A13680B4306D0EFF30581136808
:105640000B43B3F1F03F08D3324639462846BDE854
:10565000F840FEF7B9BF0C20F8BD1320F8BD00BF1D
:10566000045B0020F45A0020F05A00209C5B0020CC
:10567000B45F00200C00002018B10B4B02689A4266
:1056800001D00C20704751B1EFF30582074B1B6826
:10569000134306D1064A074B12689A4201D0FEF71F
:1056A000BDBF0420704700BF414D45530C00002092
:1056B0009C5B0020B45F002018B1044A0368934249
:1056C00001D00C207047FEF7EBBF00BF414D4553A2
:1056D0002DE9F04F87B09946139B0293149B0493D6
:1056E000159B0393DDE91178109D169B08B1B02B33
:1056F00003D00E2007B0BDE8F08F8B46EFF310818A
:1057000072B6DFF868E1DEF800300133CEF8003021
:1057100081F31088504B1E68504B791E1C68294439
:1057200096B30023B44601921E46A0422BD056BB2E
:10573000D4F80CA0AA4504D82269AA4284BF012645
:1057400000258A451AD822698A4217D901339C4517
:10575000019AD4F8884063D0844263D0EFF310827A
:1057600072B6DEF80030013BCEF8003082F31088CC
:10577000FFF762F9032007B0BDE8F08F01339C45C5
:10578000D4F88840D1D1019A01920590EFF31081AD
:1057900072B6DEF80030013BCEF8003081F310889D
:1057A000FFF74AF90598A042A3D0002DE2D0019A54
:1057B000002ADFD0B7F5806F2AD3B8F11F0F2BD89E
:1057C000029B98452AD3039B012B23D8244B1968AD
:1057D000244B994233D0EFF3058323490C682343CC
:1057E00006D0EFF3058309680B43B3F1F03F31D3E3
:1057F000039B1593049B1493029B5946CDE9128396
:105800004B46CDE9105707B0BDE8F04FFEF772BF29
:1058100005206FE710206DE70F206BE7182069E780
:105820000025B1E7EFF3108272B6DEF80030013BDD
:10583000CEF8003082F31088FFF7FEF859E7EFF357
:105840000583094A11680B4304D0EFF30583132045
:1058500013684FE713204DE7905B0020945B002016
:105860009C5B0020B45F00200C000020045B002043
:105870002DE9F84FDFF8C8A2DFF8C882044600F52A
:10588000B476DFF8B492DFF8C0B2304601F01EF80B
:105890000546002800F0B081D4F880314BB1FFF705
:1058A000E1FBD4F8843103F59C5308339842C0F0EF
:1058B000A381FFF7D7FBC4F88401304600F0FAFF5C
:1058C000A36B0146AAB2002B00F08B811868964F9B
:1058D0002368B84269D9434500F0BB804B4500F0CE
:1058E000B8805B4500F0B5809048834200F0B180FD
:1058F000A0F5896083422FD000F5806083422BD0D1
:10590000A0F56870834227D000F58060834223D0E1
:10591000A0F58960834200F08F8100F580608342AA
:1059200000F08A81A0F56870834200F0858100F55F
:105930008060834200F080817D4B4FF00060D86032
:105940004FF08060D8604FF08070D8604FF48000D6
:10595000D8604FF000700DE0754B4FF40060D860D8
:105960004FF48060D8604FF48070D8604020D860D9
:105970004FF400706E4BD8602046FDF7F7FDC4F879
:10598000805130B12946304600F0B0FF0023C4F802
:105990008031A56B002D7FF478AFD4F880113046AC
:1059A00000F0A4FFC4F880516BE750455CD9434533
:1059B00000F0AF804B4500F0AC805B4500F0A98063
:1059C0005A48834200F0A580A0F5896083422FD019
:1059D00000F5806083422BD0A0F56870834227D009
:1059E00000F58060834223D0A0F58960834200F0F7
:1059F000338100F58060834200F02E81A0F568704D
:105A0000834200F0298100F58060834200F0248108
:105A1000474B4FF0006098604FF0806098604FF007
:105A2000807098604FF4800098604FF000700DE037
:105A30003F4B4FF4006098604FF4806098604FF4E3
:105A400080709860402098604FF40070384B9860E8
:105A500092E7374B2020D8601020D8600420D8600F
:105A60000120D860082085E7324FB8426ED94345FF
:105A700042D0314883423FD0A0F5687083423BD08A
:105A800000F58060834237D0A0F58960834200F042
:105A9000C48000F58060834200F0BF80A0F568708C
:105AA000834200F0BA8000F58060834200F0B58048
:105AB000A0F58960834200F0DF8000F580608342BA
:105AC00000F0DA80A0F56870834200F0D58000F520
:105AD0008060834200F0D080184B4FF00060D860A7
